:0300000002159155
:0C159100787FE4F6D8FD7581600215D863
:100C560041545F496E69740041542B4D51545450B0
:100C660055423D302C222F7379732F6B3172797870
:100C76007A53463876622F3063347150306677582F
:100C86006B4155734775324D6668642F7468696E9B
:100C9600672F6576656E742F70726F7065727479E2
:100CA6002F706F7374222C227B5C22706172616DCF
:100CB600735C223A7B5C2244657465637444697391
:100CC60074616E63655C223A25647D7D222C312C2D
:100CD600300D0A00210041542B434950534E5450C5
:100CE60054494D453F0D0A00200054696D653A0090
:100CF60044697374616E63653A00636D005468728B
:100D06006573686F6C643A004F7574206F66205285
:100D1600616E6765002020202020202020202020D2
:100D260020202020200054656D70657261747572F4
:100D3600653A006B65795F6E756D6265723A004162
:100D4600542B434950534E54504346473D312C385B
:100D56002C22636E2E706F6F6C2E6E74702E6F72F7
:100D660067222C226E7470312E616C6979756E2E35
:100D7600636F6D220D0A0041542B434950534E5464
:100D8600504346473D312C382C22636E2E6E7470CC
:100D96002E6F72672E636E222C226E74702E736A0B
:100DA60074752E6564752E636E220D0A0041542BF0
:100DB6004D515454555345524346473D302C312CE2
:100DC600224E554C4C222C223063347150306677BB
:100DD600586B4155734775324D666864266B3172A0
:100DE60079787A5346387662222C22383063363741
:100DF600633161616464303033373735326261653F
:100E0600373436623737323033363630356236303D
:100E160030633139633930323566313237343637FB
:100E26003537323836623965393962222C302C3002
:100E36002C22220D0A0041542B4D515454434C4947
:100E4600454E5449443D302C226B317279787A53A1
:100E5600463876622E3063347150306677586B416F
:100E660055734775324D6668647C73656375726544
:100E76006D6F64653D325C2C7369676E6D65746871
:100E86006F643D686D61637368613235365C2C74DE
:100E9600696D657374616D703D313732363836373A
:100EA6003034313532377C220D0A0041542B4D51F6
:100EB6005454434F4E4E3D302C22696F742D3036BC
:100EC6007A3030616375693576746F786E2E6D7120
:100ED60074742E696F746875622E616C6979756EAB
:100EE60063732E636F6D222C313838332C310D0A23
:010EF60000FB
:0C189C00011E0A02170000C1090116001D
:10123F001219E77BFF7A0C79567D017F011218BFD7
:10124F007F107E271219D21218E212161D43B0FC1E
:10125F00121AC1121ACD121AB41213450518E51835
:10126F00700205171214427800EEF208EFF2121A0C
:10127F003E1218248F1D8E1C8D1B8C1AD3E51894CB
:10128F0014E51794004036E4F517F5187BFF7A0C38
:10129F00795E7800E2F52508E2F5261208497BFF12
:1012AF007A0C79DA7D107F021218BF7FF47E01125B
:1012BF0019D27BFF7A0C79DC120849800D7BFF7AFB
:1012CF000C79EE7D107F021218BF121A4BEF7006C9
:1012DF00121A58EF604C121AD58F197F507E0012D8
:1012EF0019D2121AD5EF65197038E519B4520515D0
:1012FF001E851F19E519B41805051E851F197F01D5
:10130F00121A87E51924B9600924027012121AB44F
:10131F00800D43B0FC121A3E7F647E001219D285F5
:10132F00191F851D26851C25851B24851A23AF199A
:06133F00120EF702126B12
:100EF7008F22E52224BA7003020F951470030210A3
:100F070044240260030210D612166D7BFF7A0C7917
:100F1700F07D017F011218BF752B02AB09AA087D6E
:100F2700077F011200067B2F7D097F01121A917539
:100F37002B02AB0BAA0A7D0A7F011200067B2F7DCD
:100F47000C7F01121A91752B02AB0DAA0C7D0D7F38
:100F570001120006752B02AB0FAA0E7D017F02124C
:100F670000067B3A7D037F02121A91752B02AB11A3
:100F7700AA107D047F021200067B3A7D067F0212CB
:100F87001A91752B02AB13AA127D070210D17801B3
:100F9700E2F4700318E2F470030210237BFF7A0C6B
:100FA70079F67D017F011218BF7800E2FA08E2FBAB
:100FB700752B037D0A7F011200067BFF7A0D7900EE
:100FC7007D0D7F011218BF7BFF7A0D79037D017FAD
:100FD700021218BFE51EFB7A00752B037D0B7F02FB
:100FE7001200067BFF7A0D79007D0E7F021218BF73
:100FF700C37801E2951E18E294007BFF50147A0C27
:1010070079DA7D107F011218BF7F327E001217C96F
:1010170080247A0C79EE7D107F0180177BFF7A0D93
:10102700790E7D017F011218BF7BFF7A0D791B7D39
:10103700017F021218BF7F0A7E000219D27BFF7A56
:101047000D792C7D017F011218BFE4FFFEFDFCAB7B
:1010570026AA25A924A8231201CC501E7B2D7D0189
:101067007F02121A91AF26AE25AD24AC23120239A6
:101077008F268E258D248C2380097B2B7D017F0273
:10108700121A91AF26AE25AD24AC23120288AB0706
:10109700AA06752B037D027F021200067B2E7D05B3
:1010A7007F02121A917F007E407D1C7C46AB26AAE8
:1010B70025A924A823120026120288E47B107A2788
:1010C700F9F81206ED752B047D067F020200067BF8
:1010D700FF7A0D79397D017F011218BFE522FB7A6E
:0C10E70000752B027D057F0212172522E8
:0417C9008E278F28B0
:1017CD00E4F529F52AE52825E0FFE52733FEC3E5F5
:1017DD002A9FE5299E5013B2A57F017E0012192084
:0A17ED00052AE52A70DF052980DBDC
:0117F70022CF
:10161D007BFF7A0D79451208497F2C7E011219D274
:10162D007BFF7A0D797D1208497F2C7E011219D22C
:10163D007BFF7A0D79B31208497F2C7E011219D2E6
:10164D007BFF7A0E793C1208497F2C7E011219D24C
:10165D007BFF7A0E79B11208497FB87E0B0219D241
:081AA4008F3E121AACAF3E2286
:1014F4009000011205BCFF3395E0FEEF24D0FDEE11
:1015040034FFFCC004C0051205A3FF3395E0FEEFD1
:1015140024D0FFEE34FFFE7C007D0A1205FBD0E0F0
:101524002FF50FD0E03EF50E9000031205BCFF33FB
:1015340095E0FEEF24D0FFEE34FFFE1205FB900091
:10154400041205BCFD3395E0FCED24D0FDEC34FF22
:10155400CD2FF511ED3EF5109000061205BCFF33BA
:1015640095E0FEEF24D0FFEE34FFFE7C007D0A12EE
:1015740005FB9000071205BCFD3395E0FCED24D07B
:0D158400FDEC34FFCD2FF513ED3EF51222E6
:03002300021ABB03
:051ABB00309802C29802
:011AC00032F3
:061A2F00C2A58F80D2A7C2
:081A35007F027EEFDEFEDFFC04
:011A3D002286
:0A1A8700C2A6121A2FC2A7021A35D8
:10190200CFCDCFCECCCE12060D7C007D0A12060DB5
:04191200ED2430FF91
:0A191600D2A6121A2FC2A7021A353A
:1019A600AE07BE0104ED148006BE0209ED243F44D5
:0619B60080FF121A8722D7
:1019E7007F38121A877F0C121A877F06121A877F91
:0419F70001021A8748
:0A1A9100AC031219A6AF04021916E7
:0618BF008B278A2889290D
:1018C5001219A6E4FDAB27AA28A9298D82758300E4
:0C18D5001205BCFF60061219160D80E918
:0118E10022E4
:0C1796007F0AEA24FFFDE434FFFC7E0023
:0817A2008E2C8F2D8C2E8D2F53
:1017AA007F017E00E4FBEBC3952FE52E6480F8747D
:0E17BA008098500AAC2CAD2D1205FB0B80E878
:0117C80022FE
:040006008A298B2A8E
:10000A001219A6AA2BEAD39400400D121796AC290E
:08001A00AD2A1219021A80ED53
:0100220022BB
:1016EB001219A6C3EA64809480400B7F2B12191643
:1016FB008A538B54800E7F2D121916C3E49BF5541D
:10170B00E49AF553AA52EAD39400400D121796AC03
:09171B0053AD541219021A80EDBD
:0117240022A2
:041725008A298B2A58
:101729001219A6AA2BEAD3940040297F1012179800
:10173900AC29AD2ACFCDCFCECCCE12060DEF540FAA
:10174900FEC3940AEE5004243080022437FF121994
:04175900161A80D10B
:01175D002269
:04175E008A578B58C3
:101762001219A6AA59EAD394004028EA24FFFDE4FC
:1017720034FFFC7F027E001217A2AC57AD58CFCDCA
:10178200CFCECCCE12060DEF54012430FF12191623
:031792001A80D2E8
:011795002231
:1018A8000E0800180009001400130000003B000691
:071AB400C2B5C2B6D2B42294
:0317F800EB2DFDD9
:1017FB00D2B5E4FEEF1392B4EFC313FFD2B6C2B669
:10180B000EBE08F0E4FEED1392B4EDC313FDD2B699
:08181B00C2B60EBE08F0C2B512
:0118230022A2
:1016B000E4FE430701D2B5FDEF1392B4EFC313FF6D
:1016C000D2B6C2B60DBD08F0D2B4E4FDD2B630B485
:1016D0000D7401A805088002C333D8FC4206C2B6C7
:0A16E0000DBD08E8C2B5C2B4AF06A4
:0116EA0022DD
:10134500E4FD7F8E1217FBAE08AF097C007D0A1203
:10135500060DEFC454F0FBAE08AF097C007D0A1200
:10136500060D7F8C1217F8AE0AAF0B7C007D0A12B2
:10137500060DEFC454F0FBAE0AAF0B7C007D0A12DC
:10138500060D7F881217F8AE0CAF0D7C007D0A1292
:10139500060DEFC454F0FBAE0CAF0D7C007D0A12B8
:1013A500060DEB2DFD7F861217FBAE0EAF0F7C00F1
:1013B5007D0A12060DEFC454F0FBAE0EAF0F7C0094
:1013C5007D0A12060DEB2DFD7F841217FBAE10AFC3
:1013D500117C007D0A12060DEFC454F0FBAE10AF70
:1013E500117C007D0A12060DEB2DFD7F821217FB85
:1013F500AE12AF137C007D0A12060DEFC454F0FB4C
:10140500AE12AF137C007D0A12060DEB2DFD7F8019
:101415001217FBAE14AF157C007D0A12060DEFC442
:1014250054F0FBAE14AF157C007D0A12060DEB2DB2
:0D143500FD7F8A1217FB7D807F8E0217FB62
:10166D007F8C1218508E088F097F881218508E0AA1
:10167D008F0B7F861218508E0C8F0D7F8412185091
:10168D008E0E8F0F7F821218508E108F117F801249
:10169D0018508E128F137F8A1216B01218558E1491
:0216AD008F1597
:0116AF002218
:051850001216B07E003D
:10185500AB07AA06EAC4F854F0C868FEEBC4540FF7
:1018650048FF7C007D0A1205FBEB540F2FFFEC3E71
:02187500FE2251
:1019D200EF1FAC0670011E4C600A7D027CEFDCFE3C
:0419E200DDFC80ECBC
:0119E60022DE
:0D1A3E0012195B7FCC1219757F44021975D7
:1018240012195B7FCC1219757FBE12197512193EFD
:101834008F2212193EEFFEE522FFFDAC06EC1202E8
:0B1844004FE4FBFA7980784112012F7D
:01184F002276
:0618B800045A00000000CC
:1019FB0053890F438910E4F58DF58BC28FC28ED2BC
:021A0B00AF2208
:0A19BC00EF1FAC0670011E4C600B1B
:0B19C600752A02152AE52A60ED80F862
:0119D10022F3
:10192000D3EF9400EE940040147D707C00ED1D70A8
:0D193000011CED4C70F7EF1F70E61E80E308
:01193D002287
:0C1A6500D2A07F147E001219BCC2A02287
:10144200E4F522F523F527F526F525F524F582F5B1
:1014520083F528F529121A651219FB30A1FDD28EE7
:1014620030A135308FFAC28FE55D2401F55DE43598
:101472005CF55CE4355BF55BE4355AF55AE47F03D1
:10148200FEFDFCAB5DAA5CA95BA85AD312078D4096
:10149200CFC28E7EFF7FFF22C28E858D28858B294B
:1014A200E528F522E529F523AF5DAE5CAD5BAC5ACC
:1014B200781012079EA804A905AA06AB07E4FCFD52
:1014C200EB2523F527EA3522F526ED39F525EC380B
:1014D200F524E47F0D7E48AB27AA26A925A824126D
:1014E20006627B407A42790F78001206ED8E838F76
:0114F2008277
:0114F30022D6
:051ACD00C2A00219FB9C
:0B1A7100D288C289D2A8D2AFD2B8221E
:061AC100121A1F021A7147
:0D1A4B00E5496006E4F5497F01227F002295
:0D1A5800E5476006E4F5477F01227F00228C
:031AD200AF4622FA
:031AD500AF4522F8
:030003000210F3F5
:1010F300C0E0C0F0C083C082C0D075D000C000C0C3
:1011030001C002C003C004C005C006C007E54270A9
:101113000CFFFE121A7C7F01121AC78049E5426454
:10112300017049121A9B8E438F44E4FFFE121A7C0E
:10113300D3E54494A6E543942E4010E544948EE50C
:101143004394325006754202021224D3E544948C30
:10115300E54394264010E5449474E543942A5006ED
:1011630075470102121C754201021224E542640212
:101173006003021224121A9B8E438F44E4FFFE1273
:101183001A7CD3E5449414E5439402402CE544943B
:10119300FCE54394055022E548131313541F244AD6
:1011A300F8C000E6FFE5485407FE7401A80608806E
:1011B30002C333D8FCF45F8034D3E5449426E5437B
:1011C30094064030E544940EE543940A5026E548DE
:1011D300131313541F244AF8C000E6FFE5485407CD
:1011E300FE7401A806088002C333D8FC4FD000F672
:1011F30005488006754800754201E548C3942040C0
:1012030020754800E54BF4B54A0FE54DF4B54C099C
:10121300854A46854C45754901E4FF121AC7754254
:1012230000D007D006D005D004D003D002D001D01F
:0C12330000D0D0D082D083D0F0D0E032C8
:10195B00D2B7C2B77FF7DFFED2B77F20DFFEA2B7C9
:09196B00E433FE7FF7DFFEAF0656
:011974002250
:101A0D00C2B77E04DEFEEF24FF92B77E18DEFED253
:011A1D00B711
:011A1E0022A5
:10198E00C2B77F02DFFED2B77F02DFFEA2B7E4331B
:07199E00FE7F18DFFEAF061B
:0119A500221F
:02197500AD07BC
:10197700E4FC7401A804088002C333D8FC5DFF129D
:061987001A0D0CBC08EC77
:01198D002237
:10193E00E4FDFC12198EEF600D7401A804088002FC
:0C194E00C333D8FC42050CBC08E9AF050F
:01195A00226A
:101A1F005389F0438901E4F58AF58CC28DC28C227B
:0B1A7C00AD07AC068C8CAF058F8A22F2
:091A9B00AF8CEFFEAD8AEDFF22D5
:061AC700EF24FF928C22C7
:1018E20075985075CDFF75CCFD75CBFF75CAFDD2CD
:1018F200CCD2CDC2C9C2CBD2CAD299D2ACD2AF223B
:081AAC008F993099FDC29922C7
:101877008B5E8A5F8960AB5EAA5FA9601205A36071
:10188700130560E5607002055F14F91205A3FF12E6
:051897001AAC80E22202
:10002600EC4D6011E8497017ED33EC3304600DE4D4
:10003600FCFFFEFD22E933E8330470F80202F412F5
:1000460002BF58046009E4CC2481500628500902F6
:1000560002FE2840030202FBC0E0EB4A7044B9806E
:1000660006D0E0FB0202EAEF4E701CBD8008EBFFF3
:10007600EAFEE9FD80EBE98DF0A4FEE5F002010F52
:10008600E9CDF9EAFEEBFFEF89F0A4FCE5F0CE89B5
:10009600F0A42EFFE435F0CD89F0A42DFEE435F072
:1000A6008067EF4E7005BD80D780C3EF8BF0A4ACA0
:1000B600F0EE8BF0A42CFCE435F0F8EF8AF0A42CDB
:1000C600E5F038FCE433CB8DF0A42CFCE5F03BF8EE
:1000D600EE8AF0A42CFCE5F038F8E433CF89F0A4DE
:1000E6002CFCE5F038CF3400CE89F0A42FFFE5F0E4
:1000F6003EFEE433C98DF0A42EFEE5F039CD8AF03C
:10010600A42FFFE5F03EFEE43DFD33D0E0FB5007B3
:100116000BBB000F0202FEEC2CFCEF33FFEE33FEAE
:06012600ED33FD0202D6DC
:10012C000202FEEC5D046005E8590470030202F45F
:10013C001202BF580460F6EC4860F2EC7004FDFE4D
:10014C00FF22C860DB2481C85009C39860025006A6
:10015C000202FB9850CAF582E9294B4A7005AB8222
:10016C000202EA75F0007C1A7880C3EF9BEE9AEDE0
:10017C0099400DC3EF9BFFEE9AFEED99FDE842F01E
:10018C00DC23ACF0D0E0FFD0E0FED0E0FDAB822071
:10019C00E7101BEB60BAEC2CFCEF33FFEE33FEEDFB
:1001AC0033FD0202D6E803F830E705C0F075F00025
:1001BC00EF2FFFEE33FEED33FD40B830E7C280AADF
:1001CC0074F8CC6480CCC86480C8F582046043C3E6
:1001DC00EB9FF5F0EA9E42F0E99D42F0E89C45F079
:1001EC0060305018E5825FFFE582F42B5582FB509E
:1001FC00210ABA001D09B90019088016E5825BFBBB
:10020C00E582F42F5582FF50090EBE00050DBD008E
:10021C00010CC3EB9FF5F0EA9E42F0E99D42F0E839
:0D022C009C45F06007CC4820E701B3EC22B0
:10023900ED33EC33600A047003BD8004ECB2E7FCD3
:010249002292
:10024A0075F020800E75F010800575F0087D007E2F
:10025A00007F003392D530D50312077FEC3340106C
:10026A00EF33FFEE33FEED33FDEC33FCD5F0ED2238
:0E027A00E5F0247EA2D513CC92E7CDCEFF2274
:10028800EDD2E7CD33EC3392D524814006E4FFFE6E
:10029800FDFC22FCE4CFCECDCC24E0501174FF80CD
:1002A800EDC3CC13CCCD13CDCE13CECF13CF04706A
:0702B800F030D5DE02077FE4
:1007E700E5392425F8E605392278223007027825ED
:1007F700E475F0011207B10205A32000EB7F2ED2AA
:10080700008018EF540F2490D43440D4FF30040BE9
:10081700EF24BFB41A0050032461FFE53A600215C4
:100827003A053DE53D7002053C30070D7822E47539
:10083700F0011207B1EF0205E9021AA47403D20707
:100847008003E4C207F5398B228A238924E4F53A29
:10085700F53CF53DE53A60077F2012082280F575E3
:100867003BFFC201C200C202C203C205C206C208E0
:100877001207F0FF700D3007057F00120833AF3DF8
:10088700AE3C22B4255FC2D5C2041207F0FF24D0C4
:10089700B40A00501A75F00A783A30D50508B6FF41
:1008A7000106C6A426F620D5047002D20380D924F7
:1008B700CFB41A00EF5004C2E5D204020B20D201D4
:1008C70080C6D20080C0D20280BCD2D580BAD20501
:1008D70080B47F201208222002077401B53A004035
:1008E700F11207E7FF12082202085BD208D206803E
:1008F700951207E7FB1207E7FA1207E7F94A4B7069
:100907000679177A0C7BFF20022EE53A602A7E00D3
:100917008E827583001205BC60060EEE653B70F093
:10092700C2D5EBC0E0EAC0E0E9C0E0EE120B80D030
:10093700E0F9D0E0FAD0E0FB1205A3FF60AAEBC014
:10094700E0EAC0E0E9C0E0120822D0E02401F9D0D3
:10095700E03400FAD0E0FBE53B0460DCD53BD9800E
:1009670087D20280A2120B6360F7E53B7001041285
:100977000309A93B600DE53B600914F53B120C0A1E
:10098700EF60F3EA30E702F404C3995077EAF425FD
:100997003B0430E701E404F53B800D120B6360C1B3
:1009A700EA053B253B120309EA7838F630E701E40C
:1009B700253B04D53B0420050114120B80E4C0E05D
:1009C700120C0A7838E6601320E70714F612080AB3
:1009D700802204F6D0E014C0E07F0012080AE53B4D
:1009E7006007120801153B800B300503120801D080
:1009F700E002085BD0E00480C5120B6360A0E53B12
:100A0700041203097838EAF6E53B20050260010481
:050A17002404120B8015
:100A1C0074FF04C0E0120C0A12080AE53B20050220
:100A2C006003120801D0E0B53BE87F45120814784A
:100A3C0038E67F2B30E7047F2DF404C0E012082247
:100A4C00D0E075F00A84C0F012080BD0E012080B4D
:100A5C0002085B791080027908C206C2088008D2AD
:100A6C00D5790A8004790AC2D5E53B047002F53BBE
:100A7C00E4FAFDFEFF1207E7FC7B082001131207C6
:100A8C00E7FD7B1030000A1207E7FE1207E7FF7B39
:100A9C0020EC3382D592D55013C3E43000069FFF6F
:100AAC00E49EFEE42001039DFDE49CFCE4CBF8C233
:100ABC0001EC700CCFCECDCCE824F8F870F3801795
:100ACC00C3EF33FFEE33FEED33FDEC33FCEB33FBC6
:100ADC00994002FB0FD8E9EB300105F8D0E0C4488F
:100AEC00B201C0E00AEC4D4E4F78207B0070C2EA98
:100AFC00B53B0040BCC0E0120B82D0F0D0E020012E
:100B0C0004C4C0E0C4B201C0F012080BD0F0D5F0A0
:100B1C00EB02085B1207C108F8530A5F5808C94C6E
:100B2C0008C5420A634F0A6B440A6B4908DE430A44
:100B3C00715509A2460A0045096C470C375008CD7F
:100B4C002D08D12E08F42B08D52308F2200C202ACE
:100B5C00088D48000008ECE53BB4FF03753B06121A
:100B6C0007E7FC1207E7FD1207E7FE1207E7FF781D
:100B7C0031020338790AA2D5200314300509B910C3
:100B8C00020404B9080104A2D52006025001042075
:100B9C0002689202B53A005034C0E07F203003194D
:100BAC007F30A20272067205500F120BD9C202C21C
:100BBC0006C205C2087F30800F300503E9C0E01281
:100BCC000822300503D0E0F9D0E0B53ACC30051757
:100BDC007F30B9100C1208227F583004077F7880C0
:100BEC0003B908031208223002057F2D0208227F68
:100BFC00202008F87F2B2006F322920280CF7F0062
:100C0C00B4070050052431F8E6FF22286E756C6C91
:100C1C002900D2011207E73001F8C201783A30D529
:100C2C000108F602088D2D504349581207E724039A
:100C3C00B405004001E4900C3293120813743A127C
:0A0C4C000813D203753A04020A5F90
:1002BF00E9D2E7C933E833F892D5EDD2E7CD33EC85
:0702CF0033FC5002B2D522FE
:1002D600EC30E7100FBF000C0EBE00080DBD000489
:1002E6000BEB6014A2D5EB13FCED92E7FD2274FF35
:1002F600FCFDFEFF22E480F8A2D574FF13FC7D808E
:03030600E480EFA1
:10030900F920E72824F950037907E4F42402FB18BB
:10031900DBFDE624FB5014E9600DE4F618E604F66B
:0F032900B40A08E4F6D9F57401F60A22C2D52207
:10033800ED33EC3392D5FA602AB4FF33EDC2E77B94
:10034800FF60067A03795DE4227A03796620D50492
:100358007A037961224E614E002B494E46002D49A1
:100368004E4600E47A08F608DAFC7B00740722E8B7
:10037800C0E0ECC0E0EDC0E0EEC0E0EFC0E0EA7540
:10038800F010A4CAABF075F04DA42BFBE435F0FCDB
:10039800EA2410FAEB34C5FBEC34D9FCEDC2E7FFD4
:1003A80075F056A4F42411C5F0F434C58FF0A42ACE
:1003B800E5F03BE43CF620E714120563D0E0FFD0FB
:1003C800E0FED0E0FDD0E0FC12012F8014F404120E
:1003D8000563D0E0FFD0E0FED0E0FDD0E0FC1200E5
:1003E80026D0E0F8E6FAEDD2E7CD33EC332482FBF1
:1003F800E4C3CF33CFCE33CECD33CD33DBF37B075E
:1004080075F00A846004F6081B0AE5F0F6088FF018
:10041800740AA4FFACF08EF0740AA42CFEACF05061
:10042800010C8DF0740AA42CFDE435F0F608DBDE2F
:0304380074072224
:10043B000202F4E86480F8E933E83360110460F0F9
:10044B00ED33EC337009E8FCE9FDEAFEEBFF220427
:10045B0060DED3EB9FEA9EE99DE8C2E78CF0C2F722
:10046B0095F0400CE8CCF8E9CDF9EACEFAEBCFFBEE
:10047B001202BF85D0F05804700320D5B3E8047086
:10048B00075002B2D50202FE92D5EC0460F7E4CC21
:10049B00C0E0C398F8603B94186008400DD0E0FBB7
:1004AB000202D6E4FBFAC9FC8028E830E406E4C972
:1004BB00FBE4CAFCE830E305E4C9CACBFCE854070B
:1004CB006010F8C3E913F9EA13FAEB13FBEC13FC16
:1004DB00D8F130F52FC3E49CFCEF9BFFEE9AFEEDB9
:1004EB0099FDD0E0FBEF4E4D4C701222DB03020264
:1004FB00FBEC2CFCEF33FFEE33FEED33FDED30E781
:10050B00EB0202D6EF2BFFEE3AFEED39FDD0E0FB0E
:10051B0050130BBB00030202FEED13FDEE13FEEFB7
:08052B0013FFEC13FC0202D6E1
:100533003F8000004120000042C80000447A0000D0
:10054300461C400047C35000497424004B18968052
:100553004CBEBC205A0E1BCA6753C21C749DC5AE49
:10056300FB60065407601C2323120591EB5438608B
:100573000912057D12058C120026ECF8EDF9EEFA4E
:10058300EFCB22EB12058C80F1543803241C900529
:1005930033FE93FC0EEE93FD0EEE930ECE93FF22ED
:10159D0002123FE493A3F8E493A34003F68001F213
:1015AD0008DFF48029E493A3F85407240CC8C3334F
:1015BD00C4540F4420C8834004F456800146F6DF1E
:1015CD00E4800B010204081020408090189CE47EFA
:1015DD00019360BCA3FF543F30E509541FFEE49313
:1015ED00A360010ECF54C025E060A840B8E493A3DA
:1015FD00FAE493A3F8E493A3C8C582C8CAC583CA05
:10160D00F0A3C8C582C8CAC583CADFE9DEE780BEBC
:0118BE000029
:1005A300BB010689828A83E0225002E722BBFE0256
:0905B300E32289828A83E4932289
:1005BC00BB010CE58229F582E5833AF583E02250F4
:1005CC0006E92582F8E622BBFE06E92582F8E2223E
:0D05DC00E58229F582E5833AF583E4932258
:1005E900BB010689828A83F0225002F722BBFE01F1
:0205F900F322EB
:1005FB00EF8DF0A4A8F0CF8CF0A428CE8DF0A42E14
:02060B00FE22CD
:10060D00BC000BBE0029EF8DF084FFADF022E4CCD1
:10061D00F875F008EF2FFFEE33FEEC33FCEE9DEC9A
:10062D00984005FCEE9DFE0FD5F0E9E4CEFD22EDE0
:10063D00F8F5F0EE8420D21CFEADF075F008EF2F2A
:10064D00FFED33FD4007985006D5F0F222C398FD1B
:05065D000FD5F0EA22B8
:10066200E88FF0A4CC8BF0A42CFCE98EF0A42CFC37
:100672008AF0EDA42CFCEA8EF0A4CDA8F08BF0A4B5
:100682002DCC3825F0FDE98FF0A42CCD35F0FCEB14
:100692008EF0A4FEA9F0EB8FF0A4CFC5F02ECD39D9
:0F06A200FEE43CFCEAA42DCE35F0FDE43CFC2246
:1006B10075F008758200EF2FFFEE33FECD33CDCC00
:1006C10033CCC58233C5829BED9AEC99E582984083
:1006D1000CF582EE9BFEED9AFDEC99FC0FD5F0D660
:1006E100E4CEFBE4CDFAE4CCF9A88222B800C1B98A
:1006F1000059BA002DEC8BF084CFCECDFCE5F0CBC8
:10070100F97818EF2FFFEE33FEED33FDEC33FCEB00
:1007110033FB10D703994004EB99FB0FD8E5E4F9BB
:10072100FA227818EF2FFFEE33FEED33FDEC33FCA8
:10073100C933C910D7059BE99A4007EC9BFCE99A9C
:10074100F90FD8E0E4C9FAE4CCFB2275F010EF2FE1
:10075100FFEE33FEED33FDCC33CCC833C810D707E1
:100761009BEC9AE899400AED9BFDEC9AFCE899F81C
:0E0771000FD5F0DAE4CDFBE4CCFAE4C8F922AF
:0E077F00C3E49FFFE49EFEE49DFDE49CFC228B
:10078D00EB9FF5F0EA9E42F0E99D42F0E89C45F0C2
:01079D002239
:10079E00E8600FEFC333FFEE33FEED33FDEC33FCB9
:0307AE00D8F1225D
:1007B100FAE6FB0808E6F925F0F618E6CA3AF62249
:1007C100D083D082F8E4937012740193700DA3A3C7
:1007D10093F8740193F5828883E4737402936860DB
:0607E100EFA3A3A380DFDB
:00000001FF
