:0300000002112CBE
:0C112C00787FE4F6D8FD75817A0211731B
:1012280054696D653A0044697374616E63653A0088
:10123800636D005468726573686F6C643A002100CE
:1012480020004F7574206F662052616E676500201C
:1012580020202020202020202020202020202000A6
:1012680054656D70657261747572653A006B657965
:0C1278005F6E756D6265723A00256400BF
:03154A00016E0A25
:1011B80075B0FF1215F01216AD1216BE121647EFD3
:1011C8007006121654EF604575B0FF1216C38F678C
:1011D8001216C68F66E566B45205156E856F66E50C
:1011E80066B41805056E856F667F01121690E56670
:1011F80024B9600C240270121216B9120F7D800AED
:101208001216617F647E001215DB85666F856D504E
:10121800856C4F856B4E856A4DAF66120C36809C87
:100C36008F4CE54C24BA7003020CD4147003020DD9
:100C46007424026003020E141212847BFF7A127956
:100C5600287D017F011214B1755502AB3FAA3E7D76
:100C6600077F011215107B2F7D097F0112169A75D9
:100C76005502AB41AA407D0A7F011215107B2F7DDC
:100C86000C7F0112169A755502AB43AA427D0D7F61
:100C960001121510755502AB45AA447D017F02125B
:100CA60015107B3A7D037F0212169A755502AB47E3
:100CB600AA467D047F021215107B3A7D067F02123A
:100CC600169A755502AB49AA487D07020E0F1210F7
:100CD6007A8E688F69E569F47003E568F4606E7B67
:100CE600FF7A12792E7D017F011214B1755503AB7F
:100CF60069AA687D0A7F011215107BFF7A1279387E
:100D06007D0D7F011214B17BFF7A12793B7D017F45
:100D1600021214B1E56EFB7A007555037D0B7F0256
:100D26001215107BFF7A1279387D0E7F021214B1EC
:100D3600C3E569956EE56894007BFF50067A1279E3
:100D46004680047A1279487D107F0180177BFF7AEE
:100D560012794A7D017F011214B17BFF7A1279570D
:100D66007D017F021214B17F0A7E000215DB7BFF34
:100D76007A1279687D017F011214B112166112147C
:100D86000C8F508E4F8D4E8C4DE4FFFEFDFCAB500C
:100D9600AA4FA94EA84D1201AC501E7B2D7D017F96
:100DA6000212169AAF50AE4FAD4EAC4D1202198FCD
:100DB600508E4F8D4E8C4D80097B2B7D017F02120C
:100DC600169AAF50AE4FAD4EAC4D120268AB07AAA5
:100DD600067555037D027F021215107B2E7D057F59
:100DE6000212169A7F007E407D1C7C46AB50AA4FAD
:100DF600A94EA84D120006120268E47B107A27F964
:100E0600F81206CD7555047D067F020215107BFF8C
:100E16007A1279757D017F011214B1E54CFB7A00D7
:0B0E26007555027D057F0212133C226F
:081438008F088D09AF03AE021D
:101440007525FF7526127527818E288F297B007AD6
:1014500000790A1208237B007A00790AAD09AF08E7
:031460000214B1C2
:06163800C2A58F80D2A7BD
:08163E007F027EEFDEFEDFFCFF
:011646002281
:0A169000C2A6121638C2A702163EC9
:1014D400CFCDCFCECCCE1205ED7C007D0A1205ED2A
:0414E400ED2430FFC4
:0A14E800D2A6121638C2A702163E63
:1015AF00AE07BE0104ED148006BE0209ED243F44D0
:0615BF0080FF12169022CD
:1015F0007F381216907F0C1216907F061216907F7D
:04160000010216903D
:0A169A00AC031215AFAF040214E810
:0614B1008B518A528953A1
:1014B7001215AFE4FDAB51AA52A9538D8275830073
:0C14C70012059CFF60061214E80D80E97D
:0114D30022F6
:0C13AD007F0AEA24FFFDE434FFFC7E0010
:0813B9008E568F578C588D5998
:1013C1007F017E00E4FBEBC39559E5586480F87416
:0E13D1008098500AAC56AD571205DB0B80E831
:0113DF0022EB
:041510008A538B541B
:101514001215AFAA55EAD39400400D1213ADAC5383
:08152400AD541214D41A80ED3D
:01152C00229C
:101302001215AFC3EA64809480400B7F2B1214E85D
:101312008A758B76800E7F2D1214E8C3E49BF576D6
:10132200E49AF575AA74EAD39400400D1213ADAC99
:0913320075AD761214D41A80ED99
:01133B00228F
:04133C008A538B54F1
:101340001215AFAA55EAD3940040297F101213AFAB
:10135000AC53AD54CFCDCFCECCCE1205EDEF540F64
:10136000FEC3940AEE5004243080022437FF121486
:04137000E81A80D126
:011374002256
:041375008A1C8B1D26
:101379001215AFAA1EEAD394004028EA24FFFDE41F
:1013890034FFFC7F027E001213B9AC1CAD1DCFCD1A
:10139900CFCECCCE1205EDEF54012430FF1214E864
:0313A9001A80D2D5
:0113AC00221E
:10154D000E3E00180009001400130000003B0006B9
:0516B900C2B5C2B6221B
:0313E000EB2DFDF5
:1013E300D2B5E4FEEF1392B4EFC313FFD2B6C2B685
:1013F3000EBE08F0E4FEED1392B4EDC313FDD2B6B6
:08140300C2B60EBE08F0C2B52E
:01140B0022BE
:1012C700E4FE430701D2B5FDEF1392B4EFC313FF5A
:1012D700D2B6C2B60DBD08F0D2B4E4FDD2B630B472
:1012E7000D7401A805088002C333D8FC4206C2B6B4
:0A12F7000DBD08E8C2B5C2B4AF0691
:0113010022C9
:100F7D00E4FD7F8E1213E3AE3EAF3F7C007D0A127F
:100F8D0005EDEFC454F0FBAE3EAF3F7C007D0A1281
:100F9D0005ED7F8C1213E0AE40AF417C007D0A124F
:100FAD0005EDEFC454F0FBAE40AF417C007D0A125D
:100FBD0005ED7F881213E0AE42AF437C007D0A122F
:100FCD0005EDEFC454F0FBAE42AF437C007D0A1239
:100FDD0005EDEB2DFD7F861213E3AE44AF457C008E
:100FED007D0A1205EDEFC454F0FBAE44AF457C0015
:100FFD007D0A1205EDEB2DFD7F841213E3AE46AF96
:10100D00477C007D0A1205EDEFC454F0FBAE46AFF0
:10101D00477C007D0A1205EDEB2DFD7F821213E357
:10102D00AE48AF497C007D0A1205EDEFC454F0FBCC
:10103D00AE48AF497C007D0A1205EDEB2DFD7F809A
:10104D001213E3AE4AAF4B7C007D0A1205EDEFC4DF
:10105D0054F0FBAE4AAF4B7C007D0A1205EDEB2D33
:0D106D00FD7F8A1213E37D807F8E0213E366
:101284007F8C1214638E3E8F3F7F881214638E40CE
:101294008F417F861214638E428F437F84121463BE
:1012A4008E448F457F821214638E468F477F80124F
:1012B40014638E488F497F8A1212C71214688E4AAB
:0212C4008F4B4E
:0112C6002205
:051463001212C77E001B
:10146800AB07AA06EAC4F854F0C868FEEBC4540FE8
:1014780048FF7C007D0A1205DBEB540F2FFFEC3E82
:02148800FE2242
:0616AD0012162802167A55
:0D164700E5616006E4F5617F01227F00226D
:0D165400E55F6006E4F55F7F01227F002264
:0316C300AF5E22F5
:0316C600AF5D22F3
:03000300020E31B9
:100E3100C0E0C0F0C083C082C0D075D000C000C087
:100E410001C002C003C004C005C006C007E55A7056
:100E51000CFFFE1216857F011216B38049E55A6414
:100E61000170491216A48E5B8F5CE4FFFE12168599
:100E7100D3E55C94A6E55B942E4010E55C948EE589
:100E81005B94325006755A02020F62D3E55C948C72
:100E9100E55B94264010E55C9474E55B942A50066A
:100EA100755F01020F5A755A01020F62E55A640219
:100EB1006003020F621216A48E5B8F5CE4FFFE12C8
:100EC1001685D3E55C9414E55B9402402CE55C94B3
:100ED100FCE55B94055022E560131313541F246253
:100EE100F8C000E6FFE5605407FE7401A80608801B
:100EF10002C333D8FCF45F8034D3E55C9426E55B10
:100F010094064030E55C940EE55B940A5026E5605A
:100F1100131313541F2462F8C000E6FFE560540761
:100F2100FE7401A806088002C333D8FC4FD000F636
:100F310005608006756000755A01E560C394204024
:100F410020756000E563F4B5620FE565F4B56409E9
:100F510085625E85645D756101E4FF1216B3755AA1
:100F610000D007D006D005D004D003D002D001D0E4
:0C0F710000D0D0D082D083D0F0D0E0328D
:0B167A00D288C289D2A8D2AFD2B82219
:101628005389F0438901E4F58AF58CC28DC28C2276
:0B168500AD07AC068C8CAF058F8A22ED
:0916A400AF8CEFFEAD8AEDFF22D0
:0616B300EF24FF928C22DF
:0D1661001215647FCC12157E7F4402157EA9
:10140C001215647FCC12157E7FBE12157E12152D1F
:10141C008F5112152DEFFEE551FFFDAC06EC1202BB
:0B142C002FE4FBFA7980784112010FD9
:011437002292
:10156400D2B7C2B77FF7DFFED2B77F20DFFEA2B7C4
:09157400E433FE7FF7DFFEAF0651
:01157D00224B
:10160400C2B77E04DEFEEF24FF92B77E18DEFED260
:01161400B71E
:0116150022B2
:10159700C2B77F02DFFED2B77F02DFFEA2B7E43316
:0715A700FE7F18DFFEAF0616
:0115AE00221A
:02157E00AD07B7
:10158000E4FC7401A804088002C333D8FC5DFF1298
:0615900016040CBC08EC7F
:011596002232
:10152D00E4FDFC121597EF600D7401A8040880020C
:0C153D00C333D8FC42050CBC08E9AF0524
:01154900227F
:1015DB00EF1FAC0670011E4C600A7D027CEFDCFE37
:0415EB00DDFC80ECB7
:0115EF0022D9
:06155D000477000000000D
:1016160053890F438910E4F58DF58BC28FC28ED2A4
:02162600AF22F1
:0A15C500EF1FAC0670011E4C600B16
:0B15CF007559021559E55960ED80F8D0
:0115DA0022EE
:1014F200D3EF9400EE940040147D707C00ED1D70DB
:0D150200011CED4C70F7EF1F70E61E80E33A
:01150F0022B9
:0C166E00D2A07F147E001215C5C2A0227D
:10107A00E4F551F552F556F555F554F553F582F563
:10108A0083F557F55812166E12161630A1FDD28E38
:10109A0030A135308FFAC28FE57A2401F57AE4352A
:1010AA0079F579E43578F578E43577F577E47F03EF
:1010BA00FEFDFCAB7AAA79A978A877D312076D400E
:1010CA00CFC28E7EFF7FFF22C28E858D57858B58B9
:1010DA00E557F551E558F552AF7AAE79AD78AC7768
:1010EA00781012077EA804A905AA06AB07E4FCFD3E
:1010FA00EB2552F556EA3551F555ED39F554EC38EC
:10110A00F553E47F0D7E48AB56AA55A954A853124D
:10111A0006427B407A42790F78001206CD8E838F81
:01112A008242
:01112B0022A1
:0516BE00C2A002161697
:10000600EC4D6011E8497017ED33EC3304600DE4F4
:10001600FCFFFEFD22E933E8330470F80202D41235
:10002600029F58046009E4CC248150062850090236
:1000360002DE2840030202DBC0E0EB4A7044B980CE
:1000460006D0E0FB0202CAEF4E701CBD8008EBFF33
:10005600EAFEE9FD80EBE98DF0A4FEE5F00200EF93
:10006600E9CDF9EAFEEBFFEF89F0A4FCE5F0CE89D5
:10007600F0A42EFFE435F0CD89F0A42DFEE435F092
:100086008067EF4E7005BD80D780C3EF8BF0A4ACC0
:10009600F0EE8BF0A42CFCE435F0F8EF8AF0A42CFB
:1000A600E5F038FCE433CB8DF0A42CFCE5F03BF80E
:1000B600EE8AF0A42CFCE5F038F8E433CF89F0A4FE
:1000C6002CFCE5F038CF3400CE89F0A42FFFE5F004
:1000D6003EFEE433C98DF0A42EFEE5F039CD8AF05C
:1000E600A42FFFE5F03EFEE43DFD33D0E0FB5007D4
:1000F6000BBB000F0202DEEC2CFCEF33FFEE33FEEF
:06010600ED33FD0202B61C
:10010C000202DEEC5D046005E8590470030202D4BF
:10011C0012029F580460F6EC4860F2EC7004FDFE8D
:10012C00FF22C860DB2481C85009C39860025006C6
:10013C000202DB9850CAF582E9294B4A7005AB8262
:10014C000202CA75F0007C1A7880C3EF9BEE9AED20
:10015C0099400DC3EF9BFFEE9AFEED99FDE842F03E
:10016C00DC23ACF0D0E0FFD0E0FED0E0FDAB822091
:10017C00E7101BEB60BAEC2CFCEF33FFEE33FEED1B
:10018C0033FD0202B6E803F830E705C0F075F00065
:10019C00EF2FFFEE33FEED33FD40B830E7C280AAFF
:1001AC0074F8CC6480CCC86480C8F582046043C306
:1001BC00EB9FF5F0EA9E42F0E99D42F0E89C45F099
:1001CC0060305018E5825FFFE582F42B5582FB50BE
:1001DC00210ABA001D09B90019088016E5825BFBDB
:1001EC00E582F42F5582FF50090EBE00050DBD00AF
:1001FC00010CC3EB9FF5F0EA9E42F0E99D42F0E85A
:0D020C009C45F06007CC4820E701B3EC22D0
:10021900ED33EC33600A047003BD8004ECB2E7FCF3
:0102290022B2
:10022A0075F020800E75F010800575F0087D007E4F
:10023A00007F003392D530D50312075FEC334010AC
:10024A00EF33FFEE33FEED33FDEC33FCD5F0ED2258
:0E025A00E5F0247EA2D513CC92E7CDCEFF2294
:10026800EDD2E7CD33EC3392D524814006E4FFFE8E
:10027800FDFC22FCE4CFCECDCC24E0501174FF80ED
:10028800EDC3CC13CCCD13CDCE13CECF13CF04708A
:07029800F030D5DE02075F24
:1007C700E5392425F8E6053922782230070278250D
:1007D700E475F0011207910205832000EB7F2ED20A
:1007E700008018EF540F2490D43440D4FF30040B0A
:1007F700EF24BFB41A0050032461FFE53A600215E5
:100807003A053DE53D7002053C30070D7822E47559
:10081700F001120791EF0205C902148A7403D20787
:100827008003E4C207F5398B228A238924E4F53A49
:10083700F53CF53DE53A60077F2012080280F57523
:100847003BFFC201C200C202C203C205C206C20800
:100857001207D0FF700D3007057F00120813AF3D58
:10086700AE3C22B4255FC2D5C2041207D0FF24D004
:10087700B40A00501A75F00A783A30D50508B6FF61
:100887000106C6A426F620D5047002D20380D92417
:10089700CFB41A00EF5004C2E5D204020B00D20114
:1008A70080C6D20080C0D20280BCD2D580BAD20521
:1008B70080B47F201208022002077401B53A004075
:1008C700F11207C7FF12080202083BD208D20680BE
:1008D700951207C7FB1207C7FA1207C7F94A4B70E9
:1008E7000679F77A0B7BFF20022EE53A602A7E0015
:1008F7008E8275830012059C60060EEE653B70F0D4
:10090700C2D5EBC0E0EAC0E0E9C0E0EE120B60D070
:10091700E0F9D0E0FAD0E0FB120583FF60AAEBC054
:10092700E0EAC0E0E9C0E0120802D0E02401F9D013
:10093700E03400FAD0E0FBE53B0460DCD53BD9802E
:1009470087D20280A2120B4360F7E53B70010412C5
:1009570002E9A93B600DE53B600914F53B120BEA80
:10096700EF60F3EA30E702F404C3995077EAF4251D
:100977003B0430E701E404F53B800D120B4360C1F3
:10098700EA053B253B1202E9EA7838F630E701E44D
:10099700253B04D53B0420050114120B60E4C0E09D
:1009A700120BEA7838E6601320E70714F61207EA15
:1009B700802204F6D0E014C0E07F001207EAE53B8E
:1009C70060071207E1153B800B3005031207E1D0E2
:1009D700E002083BD0E00480C5120B4360A0E53B72
:1009E700041202E97838EAF6E53B200502600104C3
:0509F7002404120B6056
:1009FC0074FF04C0E0120BEA1207EAE53B20050283
:100A0C0060031207E1D0E0B53BE87F451207F478AC
:100A1C0038E67F2B30E7047F2DF404C0E012080287
:100A2C00D0E075F00A84C0F01207EBD0E01207EBAF
:100A3C0002083B791080027908C206C2088008D2ED
:100A4C00D5790A8004790AC2D5E53B047002F53BDE
:100A5C00E4FAFDFEFF1207C7FC7B08200113120706
:100A6C00C7FD7B1030000A1207C7FE1207C7FF7BB9
:100A7C0020EC3382D592D55013C3E43000069FFF8F
:100A8C00E49EFEE42001039DFDE49CFCE4CBF8C253
:100A9C0001EC700CCFCECDCCE824F8F870F38017B5
:100AAC00C3EF33FFEE33FEED33FDEC33FCEB33FBE6
:100ABC00994002FB0FD8E9EB300105F8D0E0C448AF
:100ACC00B201C0E00AEC4D4E4F78207B0070C2EAB8
:100ADC00B53B0040BCC0E0120B62D0F0D0E020016E
:100AEC0004C4C0E0C4B201C0F01207EBD0F0D5F0E2
:100AFC00EB02083B1207A108D8530A3F5808A94C2F
:100B0C0008A5420A434F0A4B440A4B4908BE430A04
:100B1C00515509824609E045094C470C175008AD60
:100B2C002D08B12E08D42B08B52308D2200C002A8E
:100B3C00086D48000008CCE53BB4FF03753B06127A
:100B4C0007C7FC1207C7FD1207C7FE1207C7FF78BD
:100B5C0031020318790AA2D5200314300509B91003
:100B6C00020404B9080104A2D52006025001042095
:100B7C0002689202B53A005034C0E07F203003196D
:100B8C007F30A20272067205500F120BB9C202C25C
:100B9C0006C205C2087F30800F300503E9C0E012A1
:100BAC000802300503D0E0F9D0E0B53ACC30051797
:100BBC007F30B9100C1208027F583004077F788000
:100BCC0003B908031208023002057F2D0208027FC8
:100BDC00202008F87F2B2006F322920280CF7F0082
:100BEC00B4070050052431F8E6FF22286E756C6CB2
:100BFC002900D2011207C73001F8C201783A30D56A
:100C0C000108F602086D2D504349581207C72403FA
:100C1C00B405004001E4900C12931207F3743A12DD
:0A0C2C0007F3D203753A04020A3FF1
:10029F00E9D2E7C933E833F892D5EDD2E7CD33ECA5
:0702AF0033FC5002B2D5221E
:1002B600EC30E7100FBF000C0EBE00080DBD0004A9
:1002C6000BEB6014A2D5EB13FCED92E7FD2274FF55
:1002D600FCFDFEFF22E480F8A2D574FF13FC7D80AE
:0302E600E480EFC2
:1002E900F920E72824F950037907E4F42402FB18DC
:1002F900DBFDE624FB5014E9600DE4F618E604F68C
:0F030900B40A08E4F6D9F57401F60A22C2D52227
:10031800ED33EC3392D5FA602AB4FF33EDC2E77BB4
:10032800FF60067A03793DE4227A03794620D504F2
:100338007A037941224E614E002B494E46002D49E1
:100348004E4600E47A08F608DAFC7B00740722E8D7
:10035800C0E0ECC0E0EDC0E0EEC0E0EFC0E0EA7560
:10036800F010A4CAABF075F04DA42BFBE435F0FCFB
:10037800EA2410FAEB34C5FBEC34D9FCEDC2E7FFF4
:1003880075F056A4F42411C5F0F434C58FF0A42AEE
:10039800E5F03BE43CF620E714120543D0E0FFD03B
:1003A800E0FED0E0FDD0E0FC12010F8014F404124E
:1003B8000543D0E0FFD0E0FED0E0FDD0E0FC120025
:1003C80006D0E0F8E6FAEDD2E7CD33EC332482FB31
:1003D800E4C3CF33CFCE33CECD33CD33DBF37B077E
:1003E80075F00A846004F6081B0AE5F0F6088FF039
:1003F800740AA4FFACF08EF0740AA42CFEACF05082
:10040800010C8DF0740AA42CFDE435F0F608DBDE4F
:0304180074072244
:10041B000202D4E86480F8E933E83360110460F039
:10042B00ED33EC337009E8FCE9FDEAFEEBFF220447
:10043B0060DED3EB9FEA9EE99DE8C2E78CF0C2F742
:10044B0095F0400CE8CCF8E9CDF9EACEFAEBCFFB0E
:10045B0012029F85D0F05804700320D5B3E80470C6
:10046B00075002B2D50202DE92D5EC0460F7E4CC61
:10047B00C0E0C398F8603B94186008400DD0E0FBD7
:10048B000202B6E4FBFAC9FC8028E830E406E4C9B2
:10049B00FBE4CAFCE830E305E4C9CACBFCE854072B
:1004AB006010F8C3E913F9EA13FAEB13FBEC13FC36
:1004BB00D8F130F52FC3E49CFCEF9BFFEE9AFEEDD9
:1004CB0099FDD0E0FBEF4E4D4C701222DB03020284
:1004DB00DBEC2CFCEF33FFEE33FEED33FDED30E7C1
:1004EB00EB0202B6EF2BFFEE3AFEED39FDD0E0FB4F
:1004FB0050130BBB00030202DEED13FDEE13FEEFF8
:08050B0013FFEC13FC0202B621
:100513003F8000004120000042C80000447A0000F0
:10052300461C400047C35000497424004B18968072
:100533004CBEBC205A0E1BCA6753C21C749DC5AE69
:10054300FB60065407601C2323120571EB543860CB
:100553000912055D12056C120006ECF8EDF9EEFACE
:10056300EFCB22EB12056C80F1543803241C900569
:1005730013FE93FC0EEE93FD0EEE930ECE93FF222D
:101138000211B8E493A3F8E493A34003F68001F204
:1011480008DFF48029E493A3F85407240CC8C333B8
:10115800C4540F4420C8834004F456800146F6DF87
:10116800E4800B010204081020408090154AE47EB8
:10117800019360BCA3FF543F30E509541FFEE4937C
:10118800A360010ECF54C025E060A840B8E493A343
:10119800FAE493A3F8E493A3C8C582C8CAC583CA6E
:1011A800F0A3C8C582C8CAC583CADFE9DEE780BE26
:011563000087
:10058300BB010689828A83E0225002E722BBFE0276
:09059300E32289828A83E49322A9
:10059C00BB010CE58229F582E5833AF583E0225014
:1005AC0006E92582F8E622BBFE06E92582F8E2225E
:0D05BC00E58229F582E5833AF583E4932278
:1005C900BB010689828A83F0225002F722BBFE0111
:0205D900F3220B
:1005DB00EF8DF0A4A8F0CF8CF0A428CE8DF0A42E34
:0205EB00FE22EE
:1005ED00BC000BBE0029EF8DF084FFADF022E4CCF2
:1005FD00F875F008EF2FFFEE33FEEC33FCEE9DECBB
:10060D00984005FCEE9DFE0FD5F0E9E4CEFD22ED00
:10061D00F8F5F0EE8420D21CFEADF075F008EF2F4A
:10062D00FFED33FD4007985006D5F0F222C398FD3B
:05063D000FD5F0EA22D8
:10064200E88FF0A4CC8BF0A42CFCE98EF0A42CFC57
:100652008AF0EDA42CFCEA8EF0A4CDA8F08BF0A4D5
:100662002DCC3825F0FDE98FF0A42CCD35F0FCEB34
:100672008EF0A4FEA9F0EB8FF0A4CFC5F02ECD39F9
:0F068200FEE43CFCEAA42DCE35F0FDE43CFC2266
:1006910075F008758200EF2FFFEE33FECD33CDCC20
:1006A10033CCC58233C5829BED9AEC99E5829840A3
:1006B1000CF582EE9BFEED9AFDEC99FC0FD5F0D680
:1006C100E4CEFBE4CDFAE4CCF9A88222B800C1B9AA
:1006D1000059BA002DEC8BF084CFCECDFCE5F0CBE8
:1006E100F97818EF2FFFEE33FEED33FDEC33FCEB21
:1006F10033FB10D703994004EB99FB0FD8E5E4F9DC
:10070100FA227818EF2FFFEE33FEED33FDEC33FCC8
:10071100C933C910D7059BE99A4007EC9BFCE99ABC
:10072100F90FD8E0E4C9FAE4CCFB2275F010EF2F01
:10073100FFEE33FEED33FDCC33CCC833C810D70701
:100741009BEC9AE899400AED9BFDEC9AFCE899F83C
:0E0751000FD5F0DAE4CDFBE4CCFAE4C8F922CF
:0E075F00C3E49FFFE49EFEE49DFDE49CFC22AB
:10076D00EB9FF5F0EA9E42F0E99D42F0E89C45F0E2
:01077D002259
:10077E00E8600FEFC333FFEE33FEED33FDEC33FCD9
:03078E00D8F1227D
:10079100FAE6FB0808E6F925F0F618E6CA3AF62269
:1007A100D083D082F8E4937012740193700DA3A3E7
:1007B10093F8740193F5828883E4737402936860FB
:0607C100EFA3A3A380DFFB
:10148A00EFB40A07740D121495740A309811A899CA
:10149A00B8130CC2983098FDA899C298B811F630C2
:0714AA0099FDC299F599229A
:00000001FF
