:03000000021540A6
:0C154000787FE4F6D8FD758177021587EE
:100C820041545F496E69740041542B4D5154545084
:100C920055423D302C222F7379732F6B3172797844
:100CA2007A53463876622F30633471503066775803
:100CB2006B4155734775324D6668642F7468696E6F
:100CC200672F6576656E742F70726F7065727479B6
:100CD2002F706F7374222C227B5C22706172616DA3
:100CE200735C223A7B5C2244657465637444697365
:100CF20074616E63655C223A25647D7D222C312C01
:100D020030000D0A0054696D653A004469737461DC
:100D12006E63653A00636D005468726573686F6C48
:100D2200643A00210020004F7574206F66205261E2
:100D32006E676500202020202020202020202020F7
:100D4200202020200054656D706572617475726593
:100D52003A006B65795F6E756D6265723A00415457
:100D62002B434950534E54504346473D312C382C67
:100D720022636E2E6E74702E6F72672E636E222C3B
:100D8200226E74702E736A74752E6564752E636E8E
:100D9200220041542B4D515454555345524346471A
:100DA2003D302C312C224E554C4C222C22306334B7
:100DB2007150306677586B4155734775324D66688E
:100DC20064266B317279787A5346387662222C2205
:100DD20038306336376331616164643030333737BA
:100DE2003532626165373436623737323033363600
:100DF20030356236303063313963393032356631FD
:100E020032373436373537323836623965393962F6
:100E1200222C302C302C22220041542B4D51545480
:100E2200434C49454E5449443D302C226B31727932
:100E3200787A53463876622E306334715030667752
:100E4200586B4155734775324D6668647C736563B0
:100E52007572656D6F64653D325C2C7369676E6D8A
:100E62006574686F643D686D6163736861323536BD
:100E72005C2C74696D657374616D703D3137323607
:100E82003836373034313532377C220041542B4DDD
:100E9200515454434F4E4E3D302C22696F742D30C5
:100EA200367A3030616375693576746F786E2E6D7F
:100EB2007174742E696F746875622E616C697975CC
:100EC2006E63732E636F6D222C313838332C3100F0
:100ED20044617461206F766572666C6F7720210DB4
:020EE2000A0004
:0A188200014D0A024300000142007C
:101313001218A31219A87BFF7A0C79827D017F0131
:1013230012185F7FF47E011219931215CC43B0FC9F
:10133300121A7C121A88121A751212160544E54401
:10134300700205431213F58E478F481219FF1217C7
:10135300E78F4C8E4B8D4A8C49D3E5449414E54377
:101363009400401DE4F543F5447BFF7A0C798A85AC
:1013730047258548261208757BFF7A0D79041208E4
:1013830075121A0CEF7006121A19EF6051121A8DAA
:101393008F46121A908F457F507E00121993121AAE
:1013A30090EF65457038E545B45205154D854E45BA
:1013B300E545B41805054D854E457F01121A48E5EC
:1013C3004524B9600924027012121A75800D43B0C6
:1013D300FC1219FF7F647E0012199385454E854CDC
:1013E30026854B25854A24854923AF45120EE40201
:0213F300133FA6
:100EE4008F22E52224BA7003020F821470030210C9
:100EF4001B240260030210AD1216307BFF7A0D79B9
:100F0400077D017F0112185F752B02AB09AA087DCA
:100F1400077F011200067B2F7D097F01121A52758B
:100F24002B02AB0BAA0A7D0A7F011200067B2F7DE0
:100F34000C7F01121A52752B02AB0DAA0C7D0D7F8A
:100F440001120006752B02AB0FAA0E7D017F02125F
:100F540000067B3A7D037F02121A52752B02AB11F5
:100F6400AA107D047F021200067B3A7D067F0212DE
:100F74001A52752B02AB13AA127D070210A8E5487A
:100F8400F47003E547F4606E7BFF7A0D790D7D0103
:100F94007F0112185F752B03AB48AA477D0A7F01B6
:100FA4001200067BFF7A0D79177D0D7F0112185F01
:100FB4007BFF7A0D791A7D017F0212185FE54DFBE4
:100FC4007A00752B037D0B7F021200067BFF7A0DDE
:100FD40079177D0E7F0212185FC3E548954DE547EA
:100FE40094007BFF50067A0D792580047A0D7927C9
:100FF4007D107F0180177BFF7A0D79297D017F01A8
:1010040012185F7BFF7A0D79367D017F0212185F1B
:101014007F0A7E000219937BFF7A0D79477D017F59
:101024000112185FE4FFFEFDFCAB26AA25A924A843
:10103400231201CC501E7B2D7D017F02121A52AF68
:1010440026AE25AD24AC231202398F268E258D249D
:101054008C2380097B2B7D017F02121A52AF26AEAE
:1010640025AD24AC23120288AB07AA06752B037D99
:10107400027F021200067B2E7D057F02121A527F28
:10108400007E407D1C7C46AB26AA25A924A82312F9
:101094000026120288E47B107A27F9F81206ED750F
:1010A4002B047D067F020200067BFF7A0D79547DB6
:1010B400017F0112185FE522FB7A00752B027D0582
:0610C4007F021216E82273
:04178C008E708F715B
:10179000E4F572F573E57125E0FFE57033FEC3E50E
:1017A000739FE5729E5013B2A57F017E001218E16F
:0A17B0000573E57370DF057280DB3E
:0117BA00220C
:1015CC007BFF7A0D79601208757BFF7A0D79041216
:1015DC0008757FF47E011219937BFF7A0D799412B2
:1015EC0008757BFF7A0D79041208757FF47E011261
:1015FC0019937BFF7A0E791B1208757BFF7A0D7994
:10160C00041208757FF47E011219937BFF7A0E7910
:10161C008E1208757BFF7A0D79041208757FF47EA3
:04162C00010219930B
:081A65008F3E121A6DAF3E2204
:030023000214A71D
:1014A700C0E0C0F0C083C082C0D075D000C000C00B
:0D14B70001C002C003C004C005C006C0078C
:1014C40030985EC298E542C39410401D7542007B7B
:1014D400FF7A0E79D212183A7E007F107D007B00CD
:1014E4007A00794F1207E78038AF420542744F2FD4
:1014F400F8A699744E2542F8E6640A7024744D25C2
:1015040042F8E6B40D1B7B007A00794F12183A7E3C
:10151400007F107D007B007A00794F1207E7754247
:0115240000C6
:10152500D007D006D005D004D003D002D001D0001A
:0B153500D0D0D082D083D0F0D0E032C4
:0619F000C2A58F80D2A702
:0819F6007F027EEFDEFEDFFC44
:0119FE0022C6
:0A1A4800C2A61219F0C2A70219F697
:1018C300CFCDCFCECCCE12060D7C007D0A12060DF5
:0418D300ED2430FFD1
:0A18D700D2A61219F0C2A70219F6FA
:10196700AE07BE0104ED148006BE0209ED243F4414
:0619770080FF121A482255
:1019A8007F38121A487F0C121A487F06121A487F8D
:0419B80001021A48C6
:0A1A5200AC03121967AF040218D7A5
:06185F008B278A2889296D
:10186500121967E4FDAB27AA28A9298D8275830083
:0C1875001205BCFF60061218D70D80E9B8
:011881002244
:0C1759007F0AEA24FFFDE434FFFC7E0060
:081765008E2C8F2D8C2E8D2F90
:10176D007F017E00E4FBEBC3952FE52E6480F874BA
:0E177D008098500AAC2CAD2D1205FB0B80E8B5
:01178B00223B
:040006008A298B2A8E
:10000A00121967AA2BEAD39400400D121759AC298A
:08001A00AD2A1218C31A80ED93
:0100220022BB
:1016AE00121967C3EA64809480400B7F2B1218D7FF
:1016BE008A1B8B1C800E7F2D1218D7C3E49BF51C42
:1016CE00E49AF51BAA1AEAD39400400D121759ACEE
:0916DE001BAD1C1218C31A80EDAB
:0116E70022E0
:0416E8008A298B2A96
:1016EC00121967AA2BEAD3940040297F1012175BBA
:1016FC00AC29AD2ACFCDCFCECCCE12060DEF540FE8
:10170C00FEC3940AEE5004243080022437FF1218D2
:04171C00D71A80D187
:0117200022A6
:041721008A6D8B6ED4
:10172500121967AA6FEAD394004028EA24FFFDE462
:1017350034FFFC7F027E00121765AC6DAD6ECFCD18
:10174500CFCECCCE12060DEF54012430FF1218D7A0
:031755001A80D225
:01175800226E
:10188C000E0800180009001400130000003B0006AD
:071A7500C2B5C2B6D2B422D3
:0317BB00EB2DFD16
:1017BE00D2B5E4FEEF1392B4EFC313FFD2B6C2B6A6
:1017CE000EBE08F0E4FEED1392B4EDC313FDD2B6D7
:0817DE00C2B60EBE08F0C2B550
:0117E60022E0
:10167300E4FE430701D2B5FDEF1392B4EFC313FFAA
:10168300D2B6C2B60DBD08F0D2B4E4FDD2B630B4C2
:101693000D7401A805088002C333D8FC4206C2B604
:0A16A3000DBD08E8C2B5C2B4AF06E1
:0116AD00221A
:10121600E4FD7F8E1217BEAE08AF097C007D0A1270
:10122600060DEFC454F0FBAE08AF097C007D0A1230
:10123600060D7F8C1217BBAE0AAF0B7C007D0A121F
:10124600060DEFC454F0FBAE0AAF0B7C007D0A120C
:10125600060D7F881217BBAE0CAF0D7C007D0A12FF
:10126600060DEFC454F0FBAE0CAF0D7C007D0A12E8
:10127600060DEB2DFD7F861217BEAE0EAF0F7C005E
:101286007D0A12060DEFC454F0FBAE0EAF0F7C00C4
:101296007D0A12060DEB2DFD7F841217BEAE10AF30
:1012A600117C007D0A12060DEFC454F0FBAE10AFA0
:1012B600117C007D0A12060DEB2DFD7F821217BEF2
:1012C600AE12AF137C007D0A12060DEFC454F0FB7C
:1012D600AE12AF137C007D0A12060DEB2DFD7F804A
:1012E6001217BEAE14AF157C007D0A12060DEFC4B0
:1012F60054F0FBAE14AF157C007D0A12060DEB2DE3
:0D130600FD7F8A1217BE7D807F8E0217BE0C
:101630007F8C1218138E088F097F881218138E0A58
:101640008F0B7F861218138E0C8F0D7F8412181348
:101650008E0E8F0F7F821218138E108F117F8012C3
:1016600018138E128F137F8A1216731218188E1485
:021670008F15D4
:011672002255
:051813001216737E00B7
:10181800AB07AA06EAC4F854F0C868FEEBC4540F34
:1018280048FF7C007D0A1205FBEB540F2FFFEC3EAE
:02183800FE228E
:10199300EF1FAC0670011E4C600A7D027CEFDCFE7B
:0419A300DDFC80ECFB
:0119A700221D
:0D19FF0012191C7FCC1219367F44021936D4
:1017E70012191C7FCC1219367FBE1219361218FF38
:1017F7008F221218FFEFFEE522FFFDAC06EC120266
:0B1807004FE4FBFA7980784112012FBA
:0118120022B3
:06189C00047400000000CE
:1019BC0053890F438910E4F58DF58BC28FC28ED2FB
:0219CC00AF2248
:0A197D00EF1FAC0670011E4C600B5A
:0B198700752A02152AE52A60ED80F8A1
:011992002232
:1018E100D3EF9400EE940040147D707C00ED1D70E8
:0D18F100011CED4C70F7EF1F70E61E80E348
:0118FE0022C7
:0C1A2600D2A07F147E0012197DC2A02205
:1013F500E4F522F523F527F526F525F524F582F5FF
:1014050083F528F529121A261219BC30A1FDD28EB2
:1014150030A135308FFAC28FE5772401F577E435B1
:1014250076F576E43575F575E43574F574E47F0382
:10143500FEFDFCAB77AA76A975A874D312078D407B
:10144500CFC28E7EFF7FFF22C28E858D28858B2998
:10145500E528F522E529F523AF77AE76AD75AC74B1
:10146500781012079EA804A905AA06AB07E4FCFD9F
:10147500EB2523F527EA3522F526ED39F525EC3858
:10148500F524E47F0D7E48AB27AA26A925A82412BA
:1014950006627B407A42790F78001206ED8E838FC3
:0114A50082C4
:0114A6002223
:051A8800C2A00219BC20
:0B1A3200D288C289D2A8D2AFD2B8225D
:061A7C001219E0021A320B
:0D1A0C00E5666006E4F5667F01227F00229A
:0D1A1900E5646006E4F5647F01227F002291
:031A8D00AF632222
:031A9000AF622220
:030003000210CA1E
:1010CA00C0E0C0F0C083C082C0D075D000C000C0EC
:1010DA0001C002C003C004C005C006C007E55F70B6
:1010EA000CFFFE121A3D7F01121A828049E55F64E5
:1010FA00017049121A5C8E608F61E4FFFE121A3D7C
:10110A00D3E56194A6E560942E4010E561948EE5DE
:10111A006094325006755F020211FBD3E561948C2C
:10112A00E56094264010E5619474E560942A5006BF
:10113A007564010211F3755F010211FBE55F640238
:10114A0060030211FB121A5C8E608F61E4FFFE12CB
:10115A001A3DD3E5619414E5609402402CE561944C
:10116A00FCE56094055022E565131313541F2467A8
:10117A00F8C000E6FFE5655407FE7401A80608807A
:10118A0002C333D8FCF45F8034D3E5619426E5606A
:10119A0094064030E561940EE560940A5026E565B0
:1011AA00131313541F2467F8C000E6FFE5655407BC
:1011BA00FE7401A806088002C333D8FC4FD000F69B
:1011CA0005658006756500755F01E565C394204075
:1011DA0020756500E568F4B5670FE56AF4B5690935
:1011EA00856763856962756601E4FF121A82755F15
:1011FA0000D007D006D005D004D003D002D001D049
:0C120A0000D0D0D082D083D0F0D0E032F1
:10191C00D2B7C2B77FF7DFFED2B77F20DFFEA2B708
:09192C00E433FE7FF7DFFEAF0695
:01193500228F
:1019CE00C2B77E04DEFEEF24FF92B77E18DEFED293
:0119DE00B751
:0119DF0022E5
:10194F00C2B77F02DFFED2B77F02DFFEA2B7E4335A
:07195F00FE7F18DFFEAF065A
:01196600225E
:02193600AD07FB
:10193800E4FC7401A804088002C333D8FC5DFF12DC
:0619480019CE0CBC08ECF6
:01194E002276
:1018FF00E4FDFC12194FEF600D7401A8040880027B
:0C190F00C333D8FC42050CBC08E9AF054E
:01191B0022A9
:1019E0005389F0438901E4F58AF58CC28DC28C22BB
:0B1A3D00AD07AC068C8CAF058F8A2231
:091A5C00AF8CEFFEAD8AEDFF2214
:061A8200EF24FF928C220C
:1018A30075985075CDFF75CCFD75CBFF75CAFDD20C
:1018B300CCD2CDC2C9C2CBD2CAD299D2ACD2AF227A
:081A6D008F993099FDC2992206
:10183A008B3F8A408941AB3FAA40A9411205A36068
:10184A00130541E5417002054014F91205A3FF1280
:05185A001A6D80E2227E
:10002600EC4D6011E8497017ED33EC3304600DE4D4
:10003600FCFFFEFD22E933E8330470F80202F412F5
:1000460002BF58046009E4CC2481500628500902F6
:1000560002FE2840030202FBC0E0EB4A7044B9806E
:1000660006D0E0FB0202EAEF4E701CBD8008EBFFF3
:10007600EAFEE9FD80EBE98DF0A4FEE5F002010F52
:10008600E9CDF9EAFEEBFFEF89F0A4FCE5F0CE89B5
:10009600F0A42EFFE435F0CD89F0A42DFEE435F072
:1000A6008067EF4E7005BD80D780C3EF8BF0A4ACA0
:1000B600F0EE8BF0A42CFCE435F0F8EF8AF0A42CDB
:1000C600E5F038FCE433CB8DF0A42CFCE5F03BF8EE
:1000D600EE8AF0A42CFCE5F038F8E433CF89F0A4DE
:1000E6002CFCE5F038CF3400CE89F0A42FFFE5F0E4
:1000F6003EFEE433C98DF0A42EFEE5F039CD8AF03C
:10010600A42FFFE5F03EFEE43DFD33D0E0FB5007B3
:100116000BBB000F0202FEEC2CFCEF33FFEE33FEAE
:06012600ED33FD0202D6DC
:10012C000202FEEC5D046005E8590470030202F45F
:10013C001202BF580460F6EC4860F2EC7004FDFE4D
:10014C00FF22C860DB2481C85009C39860025006A6
:10015C000202FB9850CAF582E9294B4A7005AB8222
:10016C000202EA75F0007C1A7880C3EF9BEE9AEDE0
:10017C0099400DC3EF9BFFEE9AFEED99FDE842F01E
:10018C00DC23ACF0D0E0FFD0E0FED0E0FDAB822071
:10019C00E7101BEB60BAEC2CFCEF33FFEE33FEEDFB
:1001AC0033FD0202D6E803F830E705C0F075F00025
:1001BC00EF2FFFEE33FEED33FD40B830E7C280AADF
:1001CC0074F8CC6480CCC86480C8F582046043C3E6
:1001DC00EB9FF5F0EA9E42F0E99D42F0E89C45F079
:1001EC0060305018E5825FFFE582F42B5582FB509E
:1001FC00210ABA001D09B90019088016E5825BFBBB
:10020C00E582F42F5582FF50090EBE00050DBD008E
:10021C00010CC3EB9FF5F0EA9E42F0E99D42F0E839
:0D022C009C45F06007CC4820E701B3EC22B0
:10023900ED33EC33600A047003BD8004ECB2E7FCD3
:010249002292
:10024A0075F020800E75F010800575F0087D007E2F
:10025A00007F003392D530D50312077FEC3340106C
:10026A00EF33FFEE33FEED33FDEC33FCD5F0ED2238
:0E027A00E5F0247EA2D513CC92E7CDCEFF2274
:10028800EDD2E7CD33EC3392D524814006E4FFFE6E
:10029800FDFC22FCE4CFCECDCC24E0501174FF80CD
:1002A800EDC3CC13CCCD13CDCE13CECF13CF04706A
:0702B800F030D5DE02077FE4
:10081300E5392425F8E605392278223007027825C0
:10082300E475F0011207B10205A32000EB7F2ED27D
:10083300008018EF540F2490D43440D4FF30040BBD
:10084300EF24BFB41A0050032461FFE53A60021598
:100853003A053DE53D7002053C30070D7822E4750D
:10086300F0011207B1EF0205E9021A657403D2071A
:100873008003E4C207F5398B228A238924E4F53AFD
:10088300F53CF53DE53A60077F2012084E80F5758B
:100893003BFFC201C200C202C203C205C206C208B4
:1008A30012081CFF700D3007057F0012085FAF3D73
:1008B300AE3C22B4255FC2D5C20412081CFF24D06B
:1008C300B40A00501A75F00A783A30D50508B6FF15
:1008D3000106C6A426F620D5047002D20380D924CB
:1008E300CFB41A00EF5004C2E5D204020B4CD2017C
:1008F30080C6D20080C0D20280BCD2D580BAD205D5
:1009030080B47F2012084E2002077401B53A0040DC
:10091300F1120813FF12084E020887D208D206808C
:1009230095120813FB120813FA120813F94A4B70B5
:100933000679437A0C7BFF20022EE53A602A7E007B
:100943008E827583001205BC60060EEE653B70F067
:10095300C2D5EBC0E0EAC0E0E9C0E0EE120BACD0D8
:10096300E0F9D0E0FAD0E0FB1205A3FF60AAEBC0E8
:10097300E0EAC0E0E9C0E012084ED0E02401F9D07B
:10098300E03400FAD0E0FBE53B0460DCD53BD980E2
:1009930087D20280A2120B8F60F7E53B700104122D
:1009A3000309A93B600DE53B600914F53B120C36C6
:1009B300EF60F3EA30E702F404C3995077EAF425D1
:1009C3003B0430E701E404F53B800D120B8F60C15B
:1009D300EA053B253B120309EA7838F630E701E4E0
:1009E300253B04D53B0420050114120BACE4C0E005
:1009F300120C367838E6601320E70714F61208362F
:100A0300802204F6D0E014C0E07F00120836E53BF4
:100A1300600712082D153B800B30050312082DD0FB
:100A2300E0020887D0E00480C5120B8F60A0E53B8D
:100A3300041203097838EAF6E53B20050260010455
:050A43002404120BACBD
:100A480074FF04C0E0120C36120836E53B2005029C
:100A5800600312082DD0E0B53BE87F4512084078C6
:100A680038E67F2B30E7047F2DF404C0E012084EEF
:100A7800D0E075F00A84C0F0120837D0E0120837C9
:100A8800020887791080027908C206C2088008D255
:100A9800D5790A8004790AC2D5E53B047002F53B92
:100AA800E4FAFDFEFF120813FC7B0820011312086C
:100AB80013FD7B1030000A120813FE120813FF7B87
:100AC80020EC3382D592D55013C3E43000069FFF43
:100AD800E49EFEE42001039DFDE49CFCE4CBF8C207
:100AE80001EC700CCFCECDCCE824F8F870F3801769
:100AF800C3EF33FFEE33FEED33FDEC33FCEB33FB9A
:100B0800994002FB0FD8E9EB300105F8D0E0C44862
:100B1800B201C0E00AEC4D4E4F78207B0070C2EA6B
:100B2800B53B0040BCC0E0120BAED0F0D0E02001D5
:100B380004C4C0E0C4B201C0F0120837D0F0D5F048
:100B4800EB0208871207C10924530A8B5808F54C91
:100B580008F1420A8F4F0A97440A9749090A430A3B
:100B68009D5509CE460A2C450998470C635008F94B
:100B78002D08FD2E09202B090123091E200C4C2AC3
:100B880008B94800000918E53BB4FF03753B061295
:100B98000813FC120813FD120813FE120813FF783D
:100BA80031020338790AA2D5200314300509B91097
:100BB800020404B9080104A2D52006025001042049
:100BC80002689202B53A005034C0E07F2030031921
:100BD8007F30A20272067205500F120C05C202C2C3
:100BE80006C205C2087F30800F300503E9C0E01255
:100BF800084E300503D0E0F9D0E0B53ACC300517FF
:100C08007F30B9100C12084E7F583004077F788067
:100C180003B9080312084E3002057F2D02084E7FE3
:100C2800202008F87F2B2006F322920280CF7F0035
:100C3800B4070050052431F8E6FF22286E756C6C65
:100C48002900D2011208133001F8C201783A30D5D0
:100C58000108F60208B92D50434958120813240315
:100C6800B405004001E4900C5E9312083F743A12F8
:0A0C7800083FD203753A04020A8B0C
:1002BF00E9D2E7C933E833F892D5EDD2E7CD33EC85
:0702CF0033FC5002B2D522FE
:1002D600EC30E7100FBF000C0EBE00080DBD000489
:1002E6000BEB6014A2D5EB13FCED92E7FD2274FF35
:1002F600FCFDFEFF22E480F8A2D574FF13FC7D808E
:03030600E480EFA1
:10030900F920E72824F950037907E4F42402FB18BB
:10031900DBFDE624FB5014E9600DE4F618E604F66B
:0F032900B40A08E4F6D9F57401F60A22C2D52207
:10033800ED33EC3392D5FA602AB4FF33EDC2E77B94
:10034800FF60067A03795DE4227A03796620D50492
:100358007A037961224E614E002B494E46002D49A1
:100368004E4600E47A08F608DAFC7B00740722E8B7
:10037800C0E0ECC0E0EDC0E0EEC0E0EFC0E0EA7540
:10038800F010A4CAABF075F04DA42BFBE435F0FCDB
:10039800EA2410FAEB34C5FBEC34D9FCEDC2E7FFD4
:1003A80075F056A4F42411C5F0F434C58FF0A42ACE
:1003B800E5F03BE43CF620E714120563D0E0FFD0FB
:1003C800E0FED0E0FDD0E0FC12012F8014F404120E
:1003D8000563D0E0FFD0E0FED0E0FDD0E0FC1200E5
:1003E80026D0E0F8E6FAEDD2E7CD33EC332482FBF1
:1003F800E4C3CF33CFCE33CECD33CD33DBF37B075E
:1004080075F00A846004F6081B0AE5F0F6088FF018
:10041800740AA4FFACF08EF0740AA42CFEACF05061
:10042800010C8DF0740AA42CFDE435F0F608DBDE2F
:0304380074072224
:10043B000202F4E86480F8E933E83360110460F0F9
:10044B00ED33EC337009E8FCE9FDEAFEEBFF220427
:10045B0060DED3EB9FEA9EE99DE8C2E78CF0C2F722
:10046B0095F0400CE8CCF8E9CDF9EACEFAEBCFFBEE
:10047B001202BF85D0F05804700320D5B3E8047086
:10048B00075002B2D50202FE92D5EC0460F7E4CC21
:10049B00C0E0C398F8603B94186008400DD0E0FBB7
:1004AB000202D6E4FBFAC9FC8028E830E406E4C972
:1004BB00FBE4CAFCE830E305E4C9CACBFCE854070B
:1004CB006010F8C3E913F9EA13FAEB13FBEC13FC16
:1004DB00D8F130F52FC3E49CFCEF9BFFEE9AFEEDB9
:1004EB0099FDD0E0FBEF4E4D4C701222DB03020264
:1004FB00FBEC2CFCEF33FFEE33FEED33FDED30E781
:10050B00EB0202D6EF2BFFEE3AFEED39FDD0E0FB0E
:10051B0050130BBB00030202FEED13FDEE13FEEFB7
:08052B0013FFEC13FC0202D6E1
:100533003F8000004120000042C80000447A0000D0
:10054300461C400047C35000497424004B18968052
:100553004CBEBC205A0E1BCA6753C21C749DC5AE49
:10056300FB60065407601C2323120591EB5438608B
:100573000912057D12058C120026ECF8EDF9EEFA4E
:10058300EFCB22EB12058C80F1543803241C900529
:1005930033FE93FC0EEE93FD0EEE930ECE93FF22ED
:10154C00021313E493A3F8E493A34003F68001F28F
:10155C0008DFF48029E493A3F85407240CC8C333A0
:10156C00C4540F4420C8834004F456800146F6DF6F
:10157C00E4800B0102040810204080901882E47E65
:10158C00019360BCA3FF543F30E509541FFEE49364
:10159C00A360010ECF54C025E060A840B8E493A32B
:1015AC00FAE493A3F8E493A3C8C582C8CAC583CA56
:1015BC00F0A3C8C582C8CAC583CADFE9DEE780BE0E
:0118A2000045
:1005A300BB010689828A83E0225002E722BBFE0256
:0905B300E32289828A83E4932289
:1005BC00BB010CE58229F582E5833AF583E02250F4
:1005CC0006E92582F8E622BBFE06E92582F8E2223E
:0D05DC00E58229F582E5833AF583E4932258
:1005E900BB010689828A83F0225002F722BBFE01F1
:0205F900F322EB
:1005FB00EF8DF0A4A8F0CF8CF0A428CE8DF0A42E14
:02060B00FE22CD
:10060D00BC000BBE0029EF8DF084FFADF022E4CCD1
:10061D00F875F008EF2FFFEE33FEEC33FCEE9DEC9A
:10062D00984005FCEE9DFE0FD5F0E9E4CEFD22EDE0
:10063D00F8F5F0EE8420D21CFEADF075F008EF2F2A
:10064D00FFED33FD4007985006D5F0F222C398FD1B
:05065D000FD5F0EA22B8
:10066200E88FF0A4CC8BF0A42CFCE98EF0A42CFC37
:100672008AF0EDA42CFCEA8EF0A4CDA8F08BF0A4B5
:100682002DCC3825F0FDE98FF0A42CCD35F0FCEB14
:100692008EF0A4FEA9F0EB8FF0A4CFC5F02ECD39D9
:0F06A200FEE43CFCEAA42DCE35F0FDE43CFC2246
:1006B10075F008758200EF2FFFEE33FECD33CDCC00
:1006C10033CCC58233C5829BED9AEC99E582984083
:1006D1000CF582EE9BFEED9AFDEC99FC0FD5F0D660
:1006E100E4CEFBE4CDFAE4CCF9A88222B800C1B98A
:1006F1000059BA002DEC8BF084CFCECDFCE5F0CBC8
:10070100F97818EF2FFFEE33FEED33FDEC33FCEB00
:1007110033FB10D703994004EB99FB0FD8E5E4F9BB
:10072100FA227818EF2FFFEE33FEED33FDEC33FCA8
:10073100C933C910D7059BE99A4007EC9BFCE99A9C
:10074100F90FD8E0E4C9FAE4CCFB2275F010EF2FE1
:10075100FFEE33FEED33FDCC33CCC833C810D707E1
:100761009BEC9AE899400AED9BFDEC9AFCE899F81C
:0E0771000FD5F0DAE4CDFBE4CCFAE4C8F922AF
:0E077F00C3E49FFFE49EFEE49DFDE49CFC228B
:10078D00EB9FF5F0EA9E42F0E99D42F0E89C45F0C2
:01079D002239
:10079E00E8600FEFC333FFEE33FEED33FDEC33FCB9
:0307AE00D8F1225D
:1007B100FAE6FB0808E6F925F0F618E6CA3AF62249
:1007C100D083D082F8E4937012740193700DA3A3C7
:1007D10093F8740193F5828883E4737402936860DB
:0607E100EFA3A3A380DFDB
:1007E700EF4E6012EF60010EEDBB010B89828A8329
:1007F700F0A3DFFCDEFA2289F05007F709DFFCA936
:0C080700F022BBFEFCF309DFFCA9F0228C
:00000001FF
